:100000008BC50000A5C50000A3C50000A1C5000068
:100010009FC500009DC500009BC5000099C500005C
:1000200097C5000095C5000093C500000C940B0C0B
:100030008FC500008DC500008BC5000089C500007C
:1000400087C5000085C5000083C5000082C500008B
:100050007FC500007DC500007BC5000079C500009C
:1000600077C5000075C5000073C5000071C50000AC
:100070006FC50000000102030506080A0C0D0F11F0
:10008000131517191B1D20222426282B2D2F313440
:1000900036383B3E00020406080A0C0E10121416F5
:1000A000181A1C1E20222426282A2C2E30323436E0
:1000B000383A3C3E60026402F8084502D00514025A
:1000C0000C0A1902F0003C0114073C03F00364021F
:1000D00020063D02F8084502F0003C01D00514025C
:1000E000E00120030C0A19028005140204083D03F4
:1000F000FF831014DE032102BD8331029C03420200
:100100007B8352025A036302398373021803840209
:10011000F7829402D602A502B582B5029402C60205
:100120007382D6025202E7023182F70210020803FC
:10013000EF811803CE012903AD8139038C014A03F5
:100140006B815A034A016B0329817B0308018C03ED
:10015000E7809C03C600AD03A580BD038400CE03E9
:100160006380DE034200EF032180FF154200EF03AE
:100170006380DE038400CE03A580BD03C600AD030B
:10018000E7809C0308018C0329817B034A016B03F0
:100190006B815A038C014A03AD813903CE012903D7
:1001A000EF811803100208033182F7025202E702BE
:1001B0007382D6029402C602B582B502D602A502A7
:1001C000F782940218038402398373025A0363028C
:1001D0007B8352029C034202BD833102DE03210273
:1001E00021841002A3885102258D92026792330365
:1001F000E997F4036D9A3603339D9902B8205C02A7
:100200003FA41F02B8285C0233B599026DC23603C1
:10021000E9CFF40327D99302A5E0520263EC31023F
:1002200021FC1002A3EC510225E1920267DA3303AC
:10023000E9CFF4036DC2360333B59902B8285C02E6
:100240003FA41F02B8205C02339D99026D9A3603C9
:10025000E997F40367923303258D9202A388510234
:10026000C6904102C6904102C8104202E9144202FF
:10027000E9185202EA9C6202EAA07202EB208302B1
:10028000EBA49302CB289402CB289402CB249402B3
:10029000CB249402EC209402EB208402EB9C840299
:1002A000CA9C7402C91C7502A89C7402A89C840292
:1002B000A71C7402C7207402C6A07302C6A0630202
:1002C000A6A06302A7A06302A79C7302879C730287
:1002D0008818730267986202671852026694410296
:1002E000651441026494300264103002431020020D
:1002F000438C3002448C300244884002450841025D
:10030000650C4102658C4102658C4102458C4102BD
:10031000448C51024408510245085102450C5102D7
:10032000668C510286905102A7145202C794520261
:10033000E8985202081D5302092153020AA56202DD
:100340000AA562020A256202EA2072020A217202EA
:100350000A1D72020A2162020A215202EAA0510217
:10036000EA9C4102EA9C41020A9931020999410240
:1003700008954102089941020799510207995102D3
:1003800027995102279D6102279D610226A17102D2
:1003900026A1710206A5810206A9810206A9810291
:1003A000062972020625720206257202E6207202F2
:1003B000E6A07102C59C7102A51861028514510264
:1003C00085905002648C4002640C30024308300275
:1003D0004308300263043002630430026384300255
:1003E0008404310284083102A40C3102A58C31024C
:1003F0004BBAB8024BBEA9022BC299022AC299027B
:1004000028C6A90227C6A90226C69A0226428B023E
:1004100045C28B0244429C022442BC0205BECB0270
:10042000E639CB02C8B5CA02AA31CA028CADC902EC
:10043000AE2DD902CE2DE9020FB2E8024FB6E70287
:1004400070B6E602B0B6E502D1B6E402B33AD40221
:10045000B43ED4029546D40296CEC4027756C50265
:10046000795AC502BA5EB502FADE940239636402B3
:1004700079E34302B8632302D85F0302F85B030207
:10048000D9D713029A5324027BCF44025C4B6502F6
:100490003DC775023DBF75021C3F9502DB42B402A9
:1004A0009AC6D30259CE03031852230317D233033B
:1004B000F6513403F7D14503D6D14603D6CD5703C1
:1004C000D5CD6803B34D7903914D8A0370D18A036A
:1004D00010D99B03D05CAD038F5C9E034E5C9F03E1
:1004E0002D548F032CCC8E034C448E036D408D0312
:1004F0006DB87C036BB06C034A244C0348A02B03FB
:10050000479C0A036720F9026724E80287A8D702FC
:10051000872CC7028630C702A62CD702E62CE6023B
:1005200026ADF50266B10503A6B90503C6BD0503F0
:10053000C7C1F502C8C1F402C93DF402CAB9E30259
:10054000EB35C3020B32C3022BB2B3020BAEC302B4
:100550000CAEC3020D2AD4020D22D4020D9ED40289
:100560002D1AD5020E9EC502EF21B602CFA5B60206
:10057000EEADC6020DB2D6022B36D7024B36D802EC
:100580008181C00222019102A60053022980140237
:100590000C0006022C00160249802402C6006302E9
:1005A000220191028001C0028181C00222019102D8
:1005B000A6005302298014020C0006022C00160229
:1005C00049802402C5806202218190028001C0021C
:1005D0000100C00202009002060060020900200231
:1005E0000C0010022C00000249000002C6000002AC
:1005F000220100028101000280810002200101022B
:10060000C00003024080040220000602000016021F
:100610000080240200006302000091020080C002FA
:1006200001000002040000020800000210000002A5
:10063000180000021F0000023F0000029F0000029D
:100640001F0100021F0200021F030002FF0300023D
:10065000FF830002FF030202FF030402FF030802FC
:10066000FF030C02FF830F02FF831F02FF834F0271
:10067000FF838F02FF830F03FF838F03FF83FF033B
:10068000FF87FF03FF93FF03FFA3FF03FFC3FF03E6
:10069000FFE3FF03FFFFFF03FFFFFF19F8FFFF0367
:1006A000F0FFFF03E8FFFF03E4FFFF03E1FFFF03A9
:1006B000E0FFFF0300FFFF0300FEFF0300FDFF0359
:1006C00080FCFF0320FCFF0300FCFF03007CFC0315
:1006D000007CF803007CF403007CF20300FCF003D0
:1006E000007CF003007C8003007C0003007C80021F
:1006F000007C4002007C1002007C000200600002CE
:10070000004000020020000200100002000400026D
:10071000000000200004001800080002000C000285
:10072000001000020014000200180002001C000269
:10073000002000020024000200280002002C000219
:10074000003000020034000200380002003C0002C9
:10075000004000020044000200480002004C000279
:10076000005000020054000200580002005C000229
:10077000006000020064000200680002006C0002D9
:10078000007000020074000200780002007C002467
:10079000007800020074000200700002006C000289
:1007A000006800020064000200600002005C0002B9
:1007B000005800020054000200500002004C0002E9
:1007C000004800020044000200400002003C000219
:1007D000003800020034000200300002002C000249
:1007E000002800020024000200200002001C000279
:1007F000001800020014000200100002000C0002A9
:10080000000800022180103C420021026380310276
:1008100084004202A5805202C6006302E780730290
:1008200008018402298194024A01A5026B81A50274
:100830008C01C602AD81D602CE05E702EF85F70234
:1008400010060803318E180352162903739E3903CC
:1008500094264A03B5AE5A03D6366B03F7BE7B0324
:1008600018478C0339CF9C035A57AD037BDFBD0378
:100870009C67CE03BDEFDE03DE77EF03FFFFFF19BA
:10088000DE77EF03BDEFDE039C67CE037BDFBD03A6
:100890005A57AD0339CF9C0318478C03F7BE7B032F
:1008A000D6366B03B5AE5A0394264A03739E3903BA
:1008B00052162903318E180310060803EF81F70240
:1008C000CE01E702AD81D6028C01C6026B81B50272
:1008D0004A01A5022981940208018402E78073027B
:1008E000C6006302A5805202840042026380310286
:1008F00042002102218010140C00000202000002BC
:1009000052000002400100024000000200001002FC
:100910000000000200000F020000000200000010B2
:1009200000001002010000021E000002060000028A
:1009300000000002000C0002000000024001000262
:10094000C003000240010002000000100028000265
:10095000000000020028000200000002002800023F
:10096000000000100001000240020002000000022E
:100970000000010200000602000004020000010263
:10098000000030020000D00202000002120000024B
:10099000020000020E00000203000002000000102E
:1009A000C003000200000002000020020000C0029C
:1009B00000002002000040030000000C01200002A3
:1009C0000000000200080002002000026000000297
:1009D0008000020200800102000000020400000208
:1009E00008000002010000020000001000003002B8
:1009F0000050000200080002000030021E00000249
:100A00002000800280020002200000020C00000290
:100A1000020000020F000002080000020D000002A8
:100A20000200000200000028000020020000C002B6
:100A300000005002000000320030000200080002F6
:100A4000001800020000002820000002000100023F
:100A500080000002000000140000060200000102F5
:100A6000008007020000040200800602000000145B
:100A70001E03570065006400640069006E00670093
:100A800020004600610076006F00750072000000D3
:100A90000E035700690064006700650074000000E1
:100AA0000403090409022200010100C064090400D2
:100AB000000103010100092111010001223F00078B
:100AC0000581030800051201100100000008EB0376
:100AD000422001000102000105010906A1010507EC
:100AE00019E029E715002501750195088102950196
:100AF00075088101050819012905950575019102FF
:100B0000950175039101150025FF0507190029FFBF
:100B1000950675088100C00011241FBECFEFD2E0FA
:100B2000DEBFCDBF11E0A0E0B1E0EAEEF0E202C02E
:100B300005900D92A234B107D9F721E0A2E4B1E00B
:100B400001C01D92A23AB207E1F712D20C947310C1
:100B500057CA1F920F920FB60F9211242F933F93F3
:100B60008F939F93EF93FF9380914C018F5F80341D
:100B700018F480934C010BC010924C0180914A01F3
:100B800090914B01019690934B0180934A01E09123
:100B90004C01F0E0E35BFE4F808190911101282F22
:100BA0002E718170992351F095B1220F220F220FDF
:100BB000822B8095916F892385B90EC038B1982F0B
:100BC000990F990F822F880F880F880F892B809596
:100BD000932F946F892388B9FF91EF919F918F9103
:100BE0003F912F910F900FBE0F901F901895E62FF9
:100BF000F0E0EC58FF4FE49121E030E0082E01C016
:100C0000220F0A94EAF7322F209590E063E070E01B
:100C10000E942810BC0140E050E0DA01A60FB71F87
:100C2000AF73BB27A35BBE4F9C914E1710F4932B61
:100C300001C092239C934F5F5F4F4034510569F789
:100C40000895CF93DF9320910001C62FD0E0BE011D
:100C5000660F771F660F771F222359F064537F4F6B
:100C600044E050E00E944D10CE01019669E070E032
:100C70000AC06C547F4F44E050E00E944D10CE01FA
:100C8000019666E070E00E943910DF91CF910895DF
:100C9000CF93DF93CDB7DEB7A0970FB6F894DEBF42
:100CA0000FBECDBF20E2E2E1F1E0DE01119601903E
:100CB0000D922A95E1F796958795FC01EF71FF2734
:100CC00081E090E08C0F9D1FE80FF91F8081A096B6
:100CD0000FB6F894DEBF0FBECDBFDF91CF91089560
:100CE000AF92BF92CF92DF92EF92FF920F931F933A
:100CF000CF93DF93CDB7DEB72F970FB6F894DEBF53
:100D00000FBECDBF7C019B0161E270E00E943910F3
:100D1000FB010CE310E0CB01B8010E943910AF01D8
:100D2000481B590BCA01B8010E943910AB014F5F33
:100D30005F4F4A31510508F05AC0842F46305105A3
:100D400008F085E0D9018C934630510578F1CB014C
:100D500004978630910510F085E090E0F9018183D9
:100D60004B30510518F1CB0109978630910510F0F1
:100D700085E090E0D90112968C9340315105B0F096
:100D8000CB010E978630910510F085E090E0F901D7
:100D900083834531510550F0635171096630710507
:100DA00010F065E070E0D90114966C935901C12CE4
:100DB000D12CF5011081112379F0C60123E0880FB1
:100DC000991F2A95E1F79701281B390BC90160DFAC
:100DD000110F810FD5018C93BFEFCB1ADB0AEFEF18
:100DE000AE1ABE0AF5E0CF16D10419F724C08FE081
:100DF000E2E3F1E0DE01119601900D928A95E1F7B0
:100E000087010D54114CF701EC55F14C8FE0C82EC1
:100E1000D12CCF01B6010E943910A1E0B0E0AC0F97
:100E2000BD1FA80FB91F8C91D9018D939D013396D9
:100E3000E017F10771F7C70101962F960FB6F894E6
:100E4000DEBF0FBECDBFDF91CF911F910F91FF90FD
:100E5000EF90DF90CF90BF90AF90089584B7877FD9
:100E600084BF0FB6F894A895809160008861809344
:100E70006000109260000FBE85B7806185BF8AB1A7
:100E80008F738AB98BB18F738BB92FE788E391E0A9
:100E9000215080409040E1F700C0000089B186FBFE
:100EA000882780F98093000180931101882351F0F5
:100EB00087B18B7087B984B1816F84B985B1816F37
:100EC00085B909C084B18E7084B987B1846F87B940
:100ED00088B1846F88B916BC15BA82E080936E0021
:100EE00084BD80916400846080936400809164007C
:100EF00088608093640080916500816080936500C4
:100F000080B7806880BF8091D00080FF05C080914D
:100F1000D000877F8093D00080910001882371F0FA
:100F200090E080E80FB6F8948093610090936100A0
:100F30000FBE62D48DE187BD83E018C093E080E8E6
:100F40000FB6F89480936100909361000FBE07D4B0
:100F50008091650080688093650083B7817F83BF3F
:100F600083B7816083BF8FEE87BD81E085BD089523
:100F7000CF93DF93CDB7DEB729970FB6F894DEBFD6
:100F80000FBECDBF6BDF60E0CE0106965ADEE82EC5
:100F90007894CE0101965C0185E0F50111928A9565
:100FA000E9F7C12CD12C312C00E010E0F12C3CE50C
:100FB000832E31EC932E80914A0190914B01801742
:100FC000910708F49DC0F1E0FF1609F45BC082E0D0
:100FD000F81609F47CC0E32DF0E0EE0FFF1FEE0FD2
:100FE000FF1F8E819F81E80FF91F459055906590F6
:100FF0007490642D6F7180E0FADD842D8295869562
:101000008770652D6370660F660F660F682B81E031
:10101000EEDD652D669566956F7182E0E8DD852DC4
:10102000881F8827881F662D6F70660F682B83E0E6
:10103000DEDD862D82958F70672D61706295607FF1
:10104000682B84E0D4DD33948885381206C0809103
:1010500044018F5F80934401312C872D86958F71D9
:10106000698570E090E0F4D700914A0110914B013E
:10107000080F191F0F3F9FEF190709F041C000E04B
:1010800010E03EC0B501C6012BDE6C010E5F1F4FA4
:10109000698180E0ACDD6A8181E0A9DD6B8183E05C
:1010A000A6DD6C8184E0A3DD6D8182E0A0DDE5ED4D
:1010B000CE16E1ECDE0620F190924B0180924A01BF
:1010C0008CE5C82E81ECD82E0CE511EC19C0B501C9
:1010D000C60106DE0E5F1F4F698180E088DD6A81F0
:1010E00081E085DD6B8183E082DD6C8184E07FDDE2
:1010F0006D8182E07CDDC114D10411F402E010E0C6
:1011000080910001882321F081E091E0DFD679D53C
:101110004F9919C080914901811117C020914A014E
:1011200030914B01809146019091470182179307BE
:1011300061F081E08093450130934701209346019F
:101140008093490102C01092490189B186FB88272A
:1011500080F990910001981759F098E088E10FB656
:10116000F894A895809360000FBE90936000FFCF25
:10117000809148018823D1F1809142018823B1F008
:10118000F1100AC010924B0110924A0110924501D1
:10119000C12CD12C00E010E080914301882319F08C
:1011A00022E0F22E08CFFF24F39405CFFF2049F070
:1011B00010924B0110924A0110924501312C00E02F
:1011C00010E080914501811102C0F12CF4CE6E2D0A
:1011D000CE01069636DDE82E10924B0110924A01A0
:1011E00010924501312C00E010E0EFCF80914401D6
:1011F000863921F080914501882361F06E2DCE0162
:1012000006961FDDE82E1092440110924501312C04
:1012100000E010E078948895D8CF0895089581E093
:1012200091E041D6E2EEF0E0808184608083089511
:1012300081E091E000C580910F019091100100972D
:1012400029F001979093100180930F0108950F9357
:101250001F9388E090E0F8019183808380E01F91E4
:101260000F910895F901808181FF0DC080914301A4
:10127000811103C081E08093450181E080934301A7
:101280008093480102C010924301F901808182FFDE
:101290000DC080914201811103C081E0809345011E
:1012A00081E08093420180934801089510924201A9
:1012B0000895292F332723303105E1F05CF42130E4
:1012C000310599F02230310579F582E290E024EA87
:1012D0003AE02EC02132310511F12232310521F5DB
:1012E0008FE390E028ED3AE023C082E190E026EC25
:1012F0003AE01EC099278130910541F08230910576
:1013000041F0892B89F4E0EAFAE005C0E0E9FAE06F
:1013100002C0E0E7FAE0849190E09F0109C089E013
:1013200090E026EB3AE004C080E090E020E030E07E
:10133000FA01318320830895CF92DF92EF92FF92DA
:101340000F931F93CF93DF93EC018B017A01D5D1DB
:10135000811133C0E114F10439F0F70180819181EA
:10136000081B190BC80FD91FC12CD12C0115110551
:1013700019F18091E80085FD16C08091E8008E7714
:101380008093E8003ED4E114F10449F0F701808134
:101390009181C80ED91ED182C08285E00EC0ADD128
:1013A000882321F30AC089918093F100015011092B
:1013B000FFEFCF1ADF0ADACF80E0DF91CF911F91E4
:1013C0000F91FF90EF90DF90CF9008952091A001B2
:1013D0003091A1012617370748F06115710539F4DE
:1013E0002091E8002E772093E80001C0B90140E089
:1013F0006115710591F120919901222309F440C0F2
:10140000253009F43FC02091E80023FD3DC0209124
:10141000E80022FD2FC02091E80020FFE9CF2091B5
:10142000F20030E0FC01CF016115710559F0283060
:10143000310540F481918093F100615071092F5F73
:101440003F4FF1CF41E02830310509F040E02091D5
:10145000E8002E772093E800CBCF4111CCCF0AC013
:1014600080919901882361F0853061F08091E800D6
:1014700083FD0AC08091E80082FFF2CF80E00895EA
:1014800082E0089583E0089581E008956115710573
:1014900029F42091E8002B772093E800FC016115E6
:1014A000710521F180919901882341F1853041F145
:1014B0008091E80083FD20C08091E80082FFEFCF9B
:1014C0008091F200882331F08091F1008193615086
:1014D0007109B1F78091E8008B778093E800DFCF46
:1014E00080919901882351F0853051F08091E80076
:1014F00080FFF6CF80E0089581E0089582E00895AE
:1015000083E008952091A0013091A10126173707AB
:1015100048F06115710539F42091E8002E77209389
:10152000E80001C0B901FC0120E06115710579F105
:1015300080919901882309F43DC0853009F43CC0AD
:101540008091E80083FD3AC08091E80082FD2CC0C4
:101550008091E80080FFE9CF8091F20090E0611572
:10156000710559F08830910540F424912093F100E1
:101570003196615071090196F2CF21E0089709F088
:1015800020E08091E8008E778093E800CECF211193
:10159000CFCF0AC080919901882361F0853061F036
:1015A0008091E80083FD0AC08091E80082FFF2CFBD
:1015B00080E0089582E0089583E0089581E0089531
:1015C000982F953058F59093E900981739F070915D
:1015D000EC002091ED005091F00003C0242F762FF5
:1015E00050E021FF19C03091EB003E7F3093EB00BB
:1015F0003091ED003D7F3093ED003091EB00316094
:101600003093EB007093EC002093ED005093F000CA
:101610002091EE0027FF07C09F5FD3CF8F7080938C
:10162000E90081E0089580E00895EF92FF920F9322
:101630001F93CF93DF93E62EEC018C010C5F1F4FBD
:10164000F12CFE1499F19881992359F1F801208128
:1016500069817A8131973081892F8F70853010F0C0
:1016600080E025C0223010F442E001C046E0E8E00E
:10167000F0E020E0E617F70720F42F5FEE0FFF1FE2
:10168000F9CF2295207F422B232F2295220F220F64
:10169000207C991F9927991F622F692B91DF88233E
:1016A000F9F2F39425960B5F1F4FCBCF81E0DF91CA
:1016B000CF911F910F91FF90EF90089580919A0123
:1016C00087FF11C08091E80082FD05C080919901DB
:1016D0008111F8CF11C08091E8008B770BC0809109
:1016E0009901882349F08091E80080FFF8CF80912C
:1016F000E8008E778093E80008952091E40030910F
:10170000E50095E64091EC00842F817040FF22C0F7
:101710008091E80080FD1CC080919901882391F0A0
:10172000853091F08091EB0085FD10C04091E40080
:101730005091E5004217530729F39A01915011F790
:1017400084E0089582E0089583E0089581E008959B
:1017500080E008954091E80042FFDECF089555D023
:1017600057D0E0EEF0E0808181608083E8EDF0E02A
:1017700080818F77808319BCE3E6F0E0808181600F
:10178000808310929801089540D042D08091D80073
:101790008F778093D8008091D80080688093D8009C
:1017A0008091D8008F7D8093D80019BC82E089BDDC
:1017B00009B400FEFDCF109299011092950110928C
:1017C00097011092960142E060E080E0F9DE80919E
:1017D000E1008E7F8093E1008091E2008160809340
:1017E000E2008091E20088608093E2008091E00056
:1017F0008E7F8093E0000895E3E6F0E080818E7FA5
:10180000808381E080939801BFCF1092E200089519
:101810001092E10008951F920F920FB60F921124BB
:101820002F933F934F935F936F937F938F939F93E8
:10183000AF93BF93EF93FF938091E10082FF0AC0C3
:101840008091E20082FF06C08091E1008B7F80934F
:10185000E100F1DC8091E10080FF17C08091E2009F
:1018600080FF13C08091E2008E7F8093E200809120
:10187000E20080618093E2008091D80080628093D2
:10188000D80019BC10929901C9DC8091E10084FF55
:101890002EC08091E20084FF2AC019BC82E089BD7D
:1018A00009B400FEFDCF8091D8008F7D8093D800D1
:1018B0008091E1008F7E8093E1008091E2008F7E35
:1018C0008093E2008091E20081608093E200809149
:1018D0009501882311F084E007C08091E30087FD23
:1018E00002C081E001C083E08093990196DC809181
:1018F000E10083FF22C08091E20083FF1EC080913F
:10190000E100877F8093E10082E08093990110924B
:1019100095018091E1008E7F8093E1008091E2004B
:101920008E7F8093E2008091E20080618093E200EC
:1019300042E060E080E044DE63D1FF91EF91BF912F
:10194000AF919F918F917F916F915F914F913F9157
:101950002F910F900FBE0F901F9018951F93CF934C
:10196000DF93CDB7DEB7AA970FB6F894DEBF0FBEF0
:10197000CDBFEAE9F1E088E08E0F9091F1009193FC
:101980008E13FBCF55DC8091E80083FF21C180914D
:101990009A0190919B01953009F478C030F4913010
:1019A00081F168F0933069F113C1983009F4E2C015
:1019B000993009F4F1C0963009F00AC189C0803825
:1019C00081F0823809F004C180919E018F7080936C
:1019D000E9008091EB0085FB882780F91092E900EF
:1019E00006C080919601909197019111826090912B
:1019F000E800977F9093E8008093F1001092F10047
:101A0000C4C0282F2D7F09F0E3C0882319F082304D
:101A100061F0DEC080919C01813009F0D9C0933023
:101A200009F080E0809397012BC080919C01811187
:101A300027C080919E018F7009F4CAC08093E9008D
:101A40002091EB0020FF1CC0933021F48091EB002B
:101A5000806214C09091EB0090619093EB0021E0C4
:101A600030E0A90102C0440F551F8A95E2F7409368
:101A7000EA001092EA008091EB0088608093EB000E
:101A80001092E9008091E800877F82C08111A0C098
:101A900010919C011F778091E3008078812B8093C7
:101AA000E3008091E800877F8093E80007DE809163
:101AB000E80080FFFCCF8091E30080688093E30022
:101AC000111102C082E001C083E08093990180C0BF
:101AD0008058823008F07CC080919C0190919D01DB
:101AE0008C3D53E0950771F583E08A838AE2898310
:101AF0004FB7F894DE01139620E03EE051E2E32F69
:101B0000F0E050935700E49120FF03C0E295EF709E
:101B10003F5FEF708E2F90E0EA3010F0C79601C063
:101B2000C0968D939D932F5F243149F74FBF8091CD
:101B3000E800877F8093E8006AE270E0CE010196BA
:101B400045DC12C0AE014F5F5F4F60919E01B1DB7B
:101B5000BC01892B09F43CC09091E800977F9093D9
:101B6000E80089819A81CEDC8091E8008B778093B0
:101B7000E8002EC0803861F58091E800877F80936F
:101B8000E800809195018093F1008091E8008E77C4
:101B90008093E80093DD1CC081111AC090919C01D4
:101BA0009230B0F48091E800877F8093E8009093B2
:101BB000950184DD80919501811106C08091E3003B
:101BC00087FD02C081E001C084E08093990127DB9A
:101BD0008091E80083FF0AC08091E800877F8093AE
:101BE000E8008091EB0080628093EB00AA960FB62C
:101BF000F894DEBF0FBECDBFDF91CF911F91089546
:101C00000895CF9380919901882399F0C091E900BC
:101C1000CF709091EC00892F817090FD80E8C82BE7
:101C20001092E9008091E80083FD98DECF70C093A8
:101C3000E900CF9108956F927F928F929F92AF9219
:101C4000BF92CF92DF92EF92FF920F931F93CF93A9
:101C5000DF9300D01F92CDB7DEB77C01CDB6DEB6E4
:101C60008091E80083FF08C1F701808190E0209116
:101C70009E0130919F012817390709F0FDC080911E
:101C80009B01833009F49FC030F4813071F08230C1
:101C900009F4D6C0F1C08A3009F4BAC08B3009F417
:101CA000A3C0893009F0E8C051C080919A01813AFF
:101CB00009F0E2C08DB69EB61A82198280919C010D
:101CC00010919D018B83F7018085482F50E08DB7DF
:101CD0009EB7841B950B0FB6F8949EBF0FBE8DBFA9
:101CE000EDB7FEB731965F0160E070E0CF01F4D14F
:101CF0004FEF410F8E010F5F1F4F9501BE016D5FCA
:101D00007F4FC701A4DAF70186819781009721F000
:101D1000408550E0B501D7D11092E9008091E800EC
:101D2000877F8093E8008B8181118093F100698126
:101D30007A81C5014BDB8091E8008B778093E800C6
:101D40000FB6F8949EBE0FBE8DBE96C080919A01CC
:101D5000813209F091C0ADB6BEB60091A0011091DC
:101D6000A10170909C0160909D018DB79EB7801B72
:101D7000910B0FB6F8949EBF0FBE8DBFEDB7FEB7A7
:101D800031964F018091E800877F8093E800B80189
:101D9000CF017CDB8091E8008E778093E80021E022
:101DA000711001C020E030E0021B130B280D391D1B
:101DB0004FEF460D672DC70155DA0FB6F894BEBE3A
:101DC0000FBEADBE59C080919A01813A09F054C04E
:101DD0008091E800877F8093E8008091E80080FF91
:101DE000FCCFF701818540C080919A01813209F0D2
:101DF00043C08091E800877F8093E8005FDC90918A
:101E00009C0181E0911101C080E0F701818734C01D
:101E100080919A01813281F58091E800877F8093DB
:101E2000E8004CDC80919C0190919D01882736E070
:101E3000969587953A95E1F7F701958784871CC0B9
:101E400080919A01813AC1F48091E800877F809364
:101E5000E8008091E80080FFFCCFF701848595853C
:101E600096958795969587958093F1008091E800E7
:101E70008E778093E80022DC0FB6F894DEBE0FBEAA
:101E8000CDBE0F900F900F90DF91CF911F910F91CA
:101E9000FF90EF90DF90CF90BF90AF909F908F908A
:101EA0007F906F900895FC01399627E0DF011D9225
:101EB0002A95E9F721E0FC01218724EF31E03587FD
:101EC000248723E0248361E00196AFCB4F925F9299
:101ED0006F927F928F929F92AF92BF92CF92DF923A
:101EE000EF92FF920F931F93CF93DF9300D01F9237
:101EF000CDB7DEB77C01ADB6BEB680919901843016
:101F000009F08DC08091E4009091E500F7012285F1
:101F100033852817390709F482C081818F70809337
:101F2000E9008091E80085FF7AC08DB69EB64085B5
:101F300050E08DB79EB7841B950B0FB6F8949EBFEB
:101F40000FBE8DBFEDB7FEB731966F011B821A82AF
:101F5000198260E070E0CF01BFD08E010F5F1F4F8C
:101F6000960140E0BE016D5F7F4FC70170D9482EDA
:101F7000F70184859585892B51F091E080E02685D5
:101F80003785232B09F090E0092F182F02C000E0BD
:101F900010E0F701668077806114710489F049814F
:101FA0005A81B301C60182D055245394892B09F478
:101FB000512CF701408550E0B601C30184D001C027
:101FC000512C89819A81892BF1F0411004C0511064
:101FD00002C0012BC1F0F70184859585978786871C
:101FE00081818F708093E9008B8181118093F10052
:101FF00069817A8140E050E0C6019ED98091E80075
:102000008E778093E8008091E4009091E500F701DD
:10201000938782870FB6F8949EBE0FBE8DBE0FB613
:10202000F894BEBE0FBEADBE0F900F900F90DF9123
:10203000CF911F910F91FF90EF90DF90CF90BF90C5
:10204000AF909F908F907F906F905F904F9008958A
:102050000024552704C0080E591F880F991F0097A8
:1020600029F076956795B8F37105B9F7802D952F0E
:102070000895AA1BBB1B51E107C0AA1FBB1FA617CF
:10208000B70710F0A61BB70B881F991F5A95A9F721
:1020900080959095BC01CD010895FB01DC0102C043
:1020A00005900D9241505040D8F70895FB01DC0196
:1020B00004C08D910190801921F441505040C8F71F
:1020C000881B990B0895FB01DC0102C001900D9261
:1020D00041505040D8F70895DC0101C06D93415044
:0A20E0005040E0F70895F894FFCF98
:1020EA00010081080000018D0108000000000000C5
:1020FA0000010000000000000000000000000000D5
:10210A0000000000000000000000010203060804AD
:10211A000201010206080A0F140802010000000069
:02212A000000B3
:00000001FF
