:100000008BC50000A5C50000A3C50000A1C5000068
:100010009FC500009DC500009BC5000099C500005C
:1000200097C5000095C5000093C500000C94800A98
:100030008FC500008DC500008BC5000089C500007C
:1000400087C5000085C5000083C5000082C500008B
:100050007FC500007DC500007BC5000079C500009C
:1000600077C5000075C5000073C5000071C50000AC
:100070006FC50000000102030506080A0C0D0F11F0
:10008000131517191B1D20222426282B2D2F313440
:1000900036383B3E00020406080A0C0E10121416F5
:1000A000181A1C1E20222426282A2C2E30323436E0
:1000B000383A3C3E60026402F8084502D00514025A
:1000C0000C0A1902F0003C0114073C03F00364021F
:1000D00020063D02F8084502F0003C01D00514025C
:1000E000E00120030C0A19028005140204083D03F4
:1000F000FF831014DE032102BD8331029C03420200
:100100007B8352025A036302398373021803840209
:10011000F7829402D602A502B582B5029402C60205
:100120007382D6025202E7023182F70210020803FC
:10013000EF811803CE012903AD8139038C014A03F5
:100140006B815A034A016B0329817B0308018C03ED
:10015000E7809C03C600AD03A580BD038400CE03E9
:100160006380DE034200EF032180FF154200EF03AE
:100170006380DE038400CE03A580BD03C600AD030B
:10018000E7809C0308018C0329817B034A016B03F0
:100190006B815A038C014A03AD813903CE012903D7
:1001A000EF811803100208033182F7025202E702BE
:1001B0007382D6029402C602B582B502D602A502A7
:1001C000F782940218038402398373025A0363028C
:1001D0007B8352029C034202BD833102DE03210273
:1001E00021841002A3885102258D92026792330365
:1001F000E997F4036D9A3603339D9902B8205C02A7
:100200003FA41F02B8285C0233B599026DC23603C1
:10021000E9CFF40327D99302A5E0520263EC31023F
:1002200021FC1002A3EC510225E1920267DA3303AC
:10023000E9CFF4036DC2360333B59902B8285C02E6
:100240003FA41F02B8205C02339D99026D9A3603C9
:10025000E997F40367923303258D9202A388510234
:10026000C6904102C6904102C8104202E9144202FF
:10027000E9185202EA9C6202EAA07202EB208302B1
:10028000EBA49302CB289402CB289402CB249402B3
:10029000CB249402EC209402EB208402EB9C840299
:1002A000CA9C7402C91C7502A89C7402A89C840292
:1002B000A71C7402C7207402C6A07302C6A0630202
:1002C000A6A06302A7A06302A79C7302879C730287
:1002D0008818730267986202671852026694410296
:1002E000651441026494300264103002431020020D
:1002F000438C3002448C300244884002450841025D
:10030000650C4102658C4102658C4102458C4102BD
:10031000448C51024408510245085102450C5102D7
:10032000668C510286905102A7145202C794520261
:10033000E8985202081D5302092153020AA56202DD
:100340000AA562020A256202EA2072020A217202EA
:100350000A1D72020A2162020A215202EAA0510217
:10036000EA9C4102EA9C41020A9931020999410240
:1003700008954102089941020799510207995102D3
:1003800027995102279D6102279D610226A17102D2
:1003900026A1710206A5810206A9810206A9810291
:1003A000062972020625720206257202E6207202F2
:1003B000E6A07102C59C7102A51861028514510264
:1003C00085905002648C4002640C30024308300275
:1003D0004308300263043002630430026384300255
:1003E0008404310284083102A40C3102A58C31024C
:1003F0004BBAB8024BBEA9022BC299022AC299027B
:1004000028C6A90227C6A90226C69A0226428B023E
:1004100045C28B0244429C022442BC0205BECB0270
:10042000E639CB02C8B5CA02AA31CA028CADC902EC
:10043000AE2DD902CE2DE9020FB2E8024FB6E70287
:1004400070B6E602B0B6E502D1B6E402B33AD40221
:10045000B43ED4029546D40296CEC4027756C50265
:10046000795AC502BA5EB502FADE940239636402B3
:1004700079E34302B8632302D85F0302F85B030207
:10048000D9D713029A5324027BCF44025C4B6502F6
:100490003DC775023DBF75021C3F9502DB42B402A9
:1004A0009AC6D30259CE03031852230317D233033B
:1004B000F6513403F7D14503D6D14603D6CD5703C1
:1004C000D5CD6803B34D7903914D8A0370D18A036A
:1004D00010D99B03D05CAD038F5C9E034E5C9F03E1
:1004E0002D548F032CCC8E034C448E036D408D0312
:1004F0006DB87C036BB06C034A244C0348A02B03FB
:10050000479C0A036720F9026724E80287A8D702FC
:10051000872CC7028630C702A62CD702E62CE6023B
:1005200026ADF50266B10503A6B90503C6BD0503F0
:10053000C7C1F502C8C1F402C93DF402CAB9E30259
:10054000EB35C3020B32C3022BB2B3020BAEC302B4
:100550000CAEC3020D2AD4020D22D4020D9ED40289
:100560002D1AD5020E9EC502EF21B602CFA5B60206
:10057000EEADC6020DB2D6022B36D7024B36D802EC
:100580008181C00222019102A60053022980140237
:100590000C0006022C00160249802402C6006302E9
:1005A000220191028001C0028181C00222019102D8
:1005B000A6005302298014020C0006022C00160229
:1005C00049802402C5806202218190028001C0021C
:1005D0000100C00202009002060060020900200231
:1005E0000C0010022C00000249000002C6000002AC
:1005F000220100028101000280810002200101022B
:10060000C00003024080040220000602000016021F
:100610000080240200006302000091020080C002FA
:1006200001000002040000020800000210000002A5
:10063000180000021F0000023F0000029F0000029D
:100640001F0100021F0200021F030002FF0300023D
:10065000FF830002FF030202FF030402FF030802FC
:10066000FF030C02FF830F02FF831F02FF834F0271
:10067000FF838F02FF830F03FF838F03FF83FF033B
:10068000FF87FF03FF93FF03FFA3FF03FFC3FF03E6
:10069000FFE3FF03FFFFFF03FFFFFF19F8FFFF0367
:1006A000F0FFFF03E8FFFF03E4FFFF03E1FFFF03A9
:1006B000E0FFFF0300FFFF0300FEFF0300FDFF0359
:1006C00080FCFF0320FCFF0300FCFF03007CFC0315
:1006D000007CF803007CF403007CF20300FCF003D0
:1006E000007CF003007C8003007C0003007C80021F
:1006F000007C4002007C1002007C000200600002CE
:10070000004000020020000200100002000400026D
:10071000000000200004001800080002000C000285
:10072000001000020014000200180002001C000269
:10073000002000020024000200280002002C000219
:10074000003000020034000200380002003C0002C9
:10075000004000020044000200480002004C000279
:10076000005000020054000200580002005C000229
:10077000006000020064000200680002006C0002D9
:10078000007000020074000200780002007C002467
:10079000007800020074000200700002006C000289
:1007A000006800020064000200600002005C0002B9
:1007B000005800020054000200500002004C0002E9
:1007C000004800020044000200400002003C000219
:1007D000003800020034000200300002002C000249
:1007E000002800020024000200200002001C000279
:1007F000001800020014000200100002000C0002A9
:10080000000800022180103C420021026380310276
:1008100084004202A5805202C6006302E780730290
:1008200008018402298194024A01A5026B81A50274
:100830008C01C602AD81D602CE05E702EF85F70234
:1008400010060803318E180352162903739E3903CC
:1008500094264A03B5AE5A03D6366B03F7BE7B0324
:1008600018478C0339CF9C035A57AD037BDFBD0378
:100870009C67CE03BDEFDE03DE77EF03FFFFFF19BA
:10088000DE77EF03BDEFDE039C67CE037BDFBD03A6
:100890005A57AD0339CF9C0318478C03F7BE7B032F
:1008A000D6366B03B5AE5A0394264A03739E3903BA
:1008B00052162903318E180310060803EF81F70240
:1008C000CE01E702AD81D6028C01C6026B81B50272
:1008D0004A01A5022981940208018402E78073027B
:1008E000C6006302A5805202840042026380310286
:1008F00042002102218010140C00000202000002BC
:1009000052000002400100024000000200001002FC
:100910000000000200000F020000000200000010B2
:1009200000001002010000021E000002060000028A
:1009300000000002000C0002000000024001000262
:10094000C003000240010002000000100028000265
:10095000000000020028000200000002002800023F
:10096000000000100001000240020002000000022E
:100970000000010200000602000004020000010263
:10098000000030020000D00202000002120000024B
:10099000020000020E00000203000002000000102E
:1009A000C003000200000002000020020000C0029C
:1009B00000002002000040030000000C01200002A3
:1009C0000000000200080002002000026000000297
:1009D0008000020200800102000000020400000208
:1009E00008000002010000020000001000003002B8
:1009F0000050000200080002000030021E00000249
:100A00002000800280020002200000020C00000290
:100A1000020000020F000002080000020D000002A8
:100A20000200000200000028000020020000C002B6
:100A300000005002000000320030000200080002F6
:100A4000001800020000002820000002000100023F
:100A500080000002000000140000060200000102F5
:100A6000008007020000040200800602000000145B
:100A70001E03570065006400640069006E00670093
:100A800020004600610076006F00750072000000D3
:100A90000E035700690064006700650074000000E1
:100AA0000403090409022200010100C064090400D2
:100AB000000103010100092111010001223F00078B
:100AC0000581030800051201100100000008EB0376
:100AD000422001000102000105010906A1010507EC
:100AE00019E029E715002501750195088102950196
:100AF00075088101050819012905950575019102FF
:100B0000950175039101150025FF0507190029FFBF
:100B1000950675088100C00011241FBECFEFD2E0FA
:100B2000DEBFCDBF11E0A0E0B1E0E0ECFDE102C02E
:100B300005900D92A231B107D9F721E0A2E1B1E011
:100B400001C01D92A137B207E1F726D10C94DE0E49
:100B500057CA1F920F920FB60F9211242F938F93A3
:100B60009F93EF93FF9380911A018F5F803418F465
:100B700080931A010BC010921A0180911801909174
:100B8000190101969093190180931801E0911A01BF
:100B9000F0E0EC5DFE4F208190911101822F8E716B
:100BA0002170992351F095B1880F880F880F822BFF
:100BB0008095916F892385B90BC098B1220F220FC0
:100BC000880F880F880F822B8095946F892388B9AE
:100BD000FF91EF919F918F912F910F900FBE0F90EA
:100BE0001F901895CF93E62FF0E0EC58FF4FE4915B
:100BF00021E030E0082E01C0220F0A94EAF7F22F1C
:100C0000C22FC09590E063E070E00E94930E20E058
:100C100030E0D901A80FB91FAF73BB27AC5DBE4F41
:100C20004C912E1710F44F2B01C04C234C932F5F87
:100C30003F4F2034310569F7CF910895CF93DF936B
:100C400020910001C62FD0E0BE01660F771F660F0E
:100C5000771F222359F064537F4F44E050E00E94F5
:100C6000B80ECE01019669E070E00AC06C547F4F67
:100C700044E050E00E94B80ECE01019666E070E0BC
:100C80000E94A40EDF91CF91089584B7877F84BF1F
:100C900088E10FB6F89480936000109260000FBE58
:100CA00085B7806185BF8AB18F738AB98BB18F7325
:100CB0008BB92FE788E391E0215080409040E1F725
:100CC00000C0000089B186FB882780F9809300016D
:100CD00080931101882351F087B18B7087B984B15B
:100CE000816F84B985B1816F85B909C084B18E7077
:100CF00084B987B1846F87B988B1846F88B916BC0D
:100D000015BA82E080936E0084BD80916400846097
:100D10008093640080916400886080936400809177
:100D2000650081608093650080B7806880BF809196
:100D3000D00080FF05C08091D000877F8093D000D5
:100D400080910001882371F090E080E80FB6F8945C
:100D500080936100909361000FBEC3D38DE187BD86
:100D600083E018C093E080E80FB6F89480936100A8
:100D7000909361000FBE68D3809165008068809376
:100D8000650083B7817F83BF83B7816083BF8FEEA8
:100D900087BD81E085BD0895CF93DF9300D000D05B
:100DA000CDB7DEB772DF60E0CE01019647DF082FD6
:100DB000789410E0E12CF12C8091180190911901A8
:100DC0008E159F0508F456C0212F30E0220F331FE7
:100DD000220F331FE981FA81E20FF31FC590D590EE
:100DE000E590F4906C2D6F7180E0FCDE8C2D829587
:100DF000869587706D2D6370660F660F660F682B82
:100E000081E0F0DE6D2D669566956F7182E0EADE19
:100E10008D2D881F8827881F6E2D6F70660F682B99
:100E200083E0E0DE8E2D82958F706F2D617062956C
:100E3000607F682B84E0D6DE1F5F8B81181306C0AD
:100E4000809112018F5F8093120110E08F2D8695A3
:100E50008F712C81622F70E090E065D7E0901801CF
:100E6000F0901901E80EF91E8FEFE816F80611F45C
:100E7000E12CF12C80910001882321F081E091E0A8
:100E800095D633D54F9919C080911701811117C09C
:100E90002091180130911901809114019091150150
:100EA0008217930761F081E080931301309315015D
:100EB000209314018093170102C01092170189B189
:100EC00086FB882780F990910001981761F028E04F
:100ED00088E190E00FB6F894A895809360000FBE6B
:100EE00020936000FFCF80911601882369F08091E4
:100EF0001301882309F460CF602FCE0101969EDE96
:100F0000082F1092130155CF80911201863921F0DC
:100F100080911301882361F0602FCE0101968EDE4F
:100F2000082F109212011092130110E0E12CF12C05
:100F30007894889541CF0895089581E091E023D673
:100F4000E2EEF0E0808184608083089581E091E0AA
:100F5000E8C480910F0190911001009729F001974A
:100F60009093100180930F0108950F931F9388E0D1
:100F700090E0F8019183808380E01F910F910895A4
:100F8000F901808181FF0DC080911B01811103C097
:100F900081E08093130181E080931B01809316010F
:100FA000089510921B010895292F3327233031050E
:100FB000B9F05CF42130310569F12230310579F561
:100FC00082E290E024EA3AE02EC021323105E9F0D5
:100FD0002232310521F58FE390E028ED3AE023C07D
:100FE00099278130910541F08230910541F0892B9C
:100FF000B1F4E0EAFAE005C0E0E9FAE002C0E0E7B7
:10100000FAE0849190E09F010EC089E090E026EB29
:101010003AE009C082E190E026EC3AE004C080E0CA
:1010200090E020E030E0FA01318320830895CF92F0
:10103000DF92EF92FF920F931F93CF93DF937C0188
:101040008B01EA01D1D1811131C0209731F0888123
:101050009981081B190BE80EF91EC12CD12C011522
:10106000110519F18091E80085FD14C08091E80018
:101070008E778093E80039D4209741F08881998158
:101080008C0D9D1D9983888385E010C0ADD1882388
:1010900031F30CC0F70181917F018093F100015081
:1010A0001109FFEFCF1ADF0ADACF80E0DF91CF918D
:1010B0001F910F91FF90EF90DF90CF9008952091B6
:1010C0006F01309170012617370748F061157105DF
:1010D00039F42091E8002E772093E80001C0B9018F
:1010E00020E061157105D1F130916801332309F4D5
:1010F00043C0353009F442C03091E80033FD40C0B0
:101100003091E80032FF06C08091E80082FF29C0DC
:1011100080E008953091E80030FFE3CF2091F200A5
:1011200030E0FC01281B390BCF01820F931F6115A2
:10113000710549F08830910530F481918093F10078
:1011400061507109F1CF21E0089709F020E080910A
:10115000E8008E778093E800CF01C3CF2111C4CF80
:10116000D3CF80916801882339F0853039F08091A0
:10117000E80083FFC9CF04C082E0089583E00895AA
:1011800081E008956115710529F42091E8002B771D
:101190002093E8006115710521F120916801222357
:1011A00049F1253049F12091E80023FD1FC020912D
:1011B000E80022FFF2CFFC01CF012091F2002223B0
:1011C00021F38091F1008193CF0161507109611584
:1011D000710591F7DACF80916801882359F0853045
:1011E00059F08091E80080FFF6CF02C081E00895B9
:1011F00080E0089582E0089583E0089520916F01D2
:10120000309170012617370748F06115710539F4E0
:101210002091E8002E772093E80001C0B90120E07A
:1012200061157105D9F130916801332309F444C087
:10123000353009F443C03091E80033FD41C03091AE
:10124000E80032FF06C08091E80082FF2AC080E0FB
:1012500008953091E80030FFE3CF2091F20030E0B4
:10126000FC01281B390BC9018E0F9F1F61157105E9
:1012700051F08830910538F484918093F1003196D3
:1012800061507109F0CF21E0089709F020E08091CA
:10129000E8008E778093E800CF01C2CF2111C3CF41
:1012A000D2CF80916801882339F0853039F0809160
:1012B000E80083FFC8CF04C082E0089583E008956A
:1012C00081E00895982F953058F59093E90098178C
:1012D00039F07091EC002091ED005091F00003C0C6
:1012E000242F762F50E021FF19C03091EB003E7F74
:1012F0003093EB003091ED003D7F3093ED00309165
:10130000EB0031603093EB007093EC002093ED0024
:101310005093F0002091EE0027FF07C09F5FD3CFCE
:101320008F708093E90081E0089580E008950F9325
:101330001F93CF93DF93062FEC0110E0101769F194
:101340009881992339F12C81E981FA816B81892F68
:101350008F70853010F080E021C0223010F056E010
:1013600001C052E028E030E040E02E173F0720F4B3
:101370004F5F220F331FF9CF4295407F452B991FB6
:101380009927991F6295660F660F607C692B9ADF1B
:10139000882309F31F5F2596D1CF81E0DF91CF919C
:1013A0001F910F9108958091690187FD05C080917B
:1013B000E80080FF0EC012C08091E80082FD05C0E9
:1013C000809168018111F8CF08958091E8008B77B2
:1013D00008C0809168018111EACF08958091E800EA
:1013E0008E778093E80008958091E4009091E50065
:1013F00045E62091EC0020FF21C02091E80020FD6F
:1014000021C020916801222389F0253089F02091A4
:10141000EB0025FD0FC02091E4003091E500281776
:10142000390739F3415041F0C901E3CF82E0089513
:1014300083E0089581E0089584E008952091E80014
:1014400022FFDFCF80E0089555D057D0E0EEF0E0E6
:10145000808181608083E8EDF0E080818F778083F8
:1014600019BCE3E6F0E0808181608083109267011F
:10147000089540D042D08091D8008F778093D800D3
:101480008091D80080688093D8008091D8008F7DAB
:101490008093D80019BC82E089BD09B400FEFDCF5D
:1014A0001092680110926401109266011092650119
:1014B00042E060E080E006DF8091E1008E7F809373
:1014C000E1008091E20081608093E2008091E2007F
:1014D00088608093E2008091E0008E7F8093E0003E
:1014E0000895E3E6F0E080818E7F808381E0809341
:1014F0006701BFCF1092E20008951092E1000895B5
:101500001F920F920FB60F9211242F933F934F9378
:101510005F936F937F938F939F93AF93BF93EF935B
:10152000FF938091E10082FF0AC08091E20082FF78
:1015300006C08091E1008B7F8093E1000ADD8091FD
:10154000E10080FF17C08091E20080FF13C080910E
:10155000E2008E7F8093E2008091E20080618093C0
:10156000E2008091D80080628093D80019BC10926C
:101570006801E2DC8091E10084FF2EC08091E200EE
:1015800084FF2AC019BC82E089BD09B400FEFDCFEA
:101590008091D8008F7D8093D8008091E1008F7E6C
:1015A0008093E1008091E2008F7E8093E200809141
:1015B000E20081608093E20080916401882311F051
:1015C00084E007C08091E30087FF02C083E001C090
:1015D00081E080936801AFDC8091E10083FF22C04D
:1015E0008091E20083FF1EC08091E100877F80939D
:1015F000E10082E080936801109264018091E10033
:101600008E7F8093E1008091E2008E7F8093E200E4
:101610008091E20080618093E20042E060E080E03F
:1016200051DE62D1FF91EF91BF91AF919F918F9168
:101630007F916F915F914F913F912F910F900FBECE
:101640000F901F9018951F93CF93DF93CDB7DEB700
:10165000AA970FB6F894DEBF0FBECDBFE9E6F1E062
:101660008091F100819321E0E137F207C9F76EDC48
:101670008091E80083FF20C19091690180916A0107
:10168000853009F477C030F4813081F168F083301F
:1016900069F112C1883009F4E1C0893009F4F0C061
:1016A000863009F009C188C0903881F0923809F07D
:1016B00003C180916D018F708093E9008091EB00F0
:1016C00085FB882780F91092E90006C080916501AA
:1016D00090916601911182609091E800977F9093BC
:1016E000E8008093F1001092F100C3C0292F2D7FF4
:1016F00009F0E2C0992319F0923061F0DDC09091B9
:101700006B01913009F0D8C0833009F090E09093DC
:1017100066012AC090916B01911126C020916D0144
:101720002F7009F4C9C02093E9009091EB0090FF5D
:101730001BC0833021F48091EB00806213C0809144
:10174000EB0080618093EB0081E090E0022E01C00D
:10175000880F0A94EAF78093EA001092EA008091D9
:10176000EB0088608093EB001092E9008091E80024
:10177000877F82C09111A0C010916B011F7780916B
:10178000E3008078812B8093E3008091E800877FDD
:101790008093E80008DE8091E80080FFFCCF809114
:1017A000E30080688093E300112311F083E001C01F
:1017B00082E08093680180C09058923008F07CC02D
:1017C00080916B0190916C018C3D23E0920771F543
:1017D00083E08A838AE289834FB7F894DE01139607
:1017E00020E03EE051E2E32FF0E050935700E49117
:1017F00020FF03C0E295EF703F5FEF708E2F90E007
:10180000EA3010F0C79601C0C0968D939D932F5F6C
:10181000243149F74FBF8091E800877F8093E8002B
:101820006AE270E0CE0101964ADC12C0AE014F5F61
:101830005F4F60916D01B8DB009709F43DC02091C6
:10184000E800277F2093E800BC0189819A81D6DCDB
:101850008091E8008B778093E8002EC0903861F586
:101860008091E800877F8093E800809164018093F5
:10187000F1008091E8008E778093E80094DD1CC031
:1018800091111AC090916B019230B0F48091E800F0
:10189000877F8093E8009093640185DD80916401E7
:1018A000811104C08091E30087FF02C084E001C081
:1018B00081E08093680141DB8091E80083FF0AC0EA
:1018C0008091E800877F8093E8008091EB00806240
:1018D0008093EB00AA960FB6F894DEBF0FBECDBF83
:1018E000DF91CF911F9108950895CF938091680162
:1018F0008823A9F08091E9008F709091EC0090FF0F
:1019000002C090E801C090E0C92FC82B1092E900F6
:101910008091E80083FD97DECF70C093E900CF91FE
:1019200008956F927F928F929F92AF92BF92CF92C3
:10193000DF92EF92FF920F931F93CF93DF9300D02C
:101940001F92CDB7DEB77C01ADB6BEB68091E80080
:1019500083FF02C1F701808190E020916D013091F9
:101960006E012817390709F0F7C080916A018330AA
:1019700009F499C030F4813071F0823009F4D0C09C
:10198000EBC08A3009F4B4C08B3009F49DC08930B3
:1019900009F0E2C04BC080916901813A09F0DCC0D6
:1019A0008DB69EB61A82198280916B0110916C01DE
:1019B0008B83F701408550E08DB79EB7841B950B54
:1019C0000FB6F8949EBF0FBE8DBFEDB7FEB7319630
:1019D0006F0160E070E0CF01EAD14FEF410F8E015F
:1019E0000F5F1F4F9601BE016D5F7F4FC701BDDACC
:1019F000F70186819781009721F0408550E0B6017C
:101A0000CDD11092E9008091E800877F8093E800B3
:101A10008B8181118093F10069817A81C6014FDB4E
:101A20008091E8008B778093E80037C0809169014E
:101A3000813209F091C08DB69EB600916F01109170
:101A4000700170906B0160906C018DB79EB7801B28
:101A5000910B0FB6F8949EBF0FBE8DBFEDB7FEB7CA
:101A600031966F018091E800877F8093E800B8018C
:101A7000CF0188DB8091E8008E778093E80021E039
:101A8000711001C020E030E0021B130B2C0D3D1D36
:101A90004FEF460D672DC70173DA0FB6F8949EBE5F
:101AA0000FBE8DBE59C080916901813A09F054C0C2
:101AB0008091E800877F8093E8008091E80080FFB4
:101AC000FCCFF701818540C080916901813209F026
:101AD00043C08091E800877F8093E80064DC9091A8
:101AE0006B0181E0911101C080E0F701818734C072
:101AF00080916901813281F58091E800877F809330
:101B0000E80051DC80916B0190916C01882736E0F0
:101B1000969587953A95E1F7F701958784871CC0DC
:101B200080916901813AC1F48091E800877F8093B8
:101B3000E8008091E80080FFFCCFF701848595855F
:101B400096958795969587958093F1008091E8000A
:101B50008E778093E80027DC0FB6F894BEBE0FBEE8
:101B6000ADBE0F900F900F90DF91CF911F910F910D
:101B7000FF90EF90DF90CF90BF90AF909F908F90AD
:101B80007F906F900895FC01399627E0DF011D9248
:101B90002A95E9F721E0FC01218724EF31E0358720
:101BA000248723E0248361E00196C1CB5F926F928A
:101BB0007F928F929F92AF92BF92CF92DF92EF92DD
:101BC000FF920F931F93CF93DF9300D01F92CDB757
:101BD000DEB77C01ADB6BEB680916801843009F0F5
:101BE0008AC08091E4009091E500F7012285338559
:101BF0002817390709F47FC081818F708093E9002D
:101C00008091E80085FF77C08DB69EB6408550E094
:101C10008DB79EB7841B950B0FB6F8949EBF0FBE71
:101C20008DBFEDB7FEB731966F011B821A82198204
:101C300060E070E0CF01BBD08E010F5F1F4F9601B7
:101C400040E0BE016D5F7F4FC7018FD9682EF7015D
:101C500084859585892B41F021E086859785892BA0
:101C600009F020E0722E01C0712CF7010681178166
:101C70000115110589F049815A81B801C60181D049
:101C800055245394892B09F4512CF701408550E0D9
:101C9000B601C80183D001C0512C29813A81232B80
:101CA000F1F0611004C0511002C070FE18C0F701BD
:101CB000848595859787868781818F708093E900D9
:101CC0008B8181118093F10069817A8140E050E03D
:101CD000C601ADD98091E8008E778093E8008091AD
:101CE000E4009091E500F701938782870FB6F8949E
:101CF0009EBE0FBE8DBE0FB6F894BEBE0FBEADBE6B
:101D00000F900F900F90DF91CF911F910F91FF9047
:101D1000EF90DF90CF90BF90AF909F908F907F908B
:101D20006F905F9008950024552704C0080E591F36
:101D3000880F991F009729F076956795B8F371057C
:101D4000B9F7802D952F0895AA1BBB1B51E107C041
:101D5000AA1FBB1FA617B70710F0A61BB70B881F3B
:101D6000991F5A95A9F780959095BC01CD010895CA
:101D7000FB01DC0102C005900D9241505040D8F7A4
:101D80000895FB01DC0104C08D910190801921F4BC
:101D900041505040C8F7881B990B0895FB01DC01A6
:101DA00002C001900D9241505040D8F70895DC01D7
:101DB00001C06D9341505040E0F70895F894FFCF73
:101DC000010081080000011C010800000000000063
:021DD000000110
:00000001FF
